:100000004DC0ACC166C065C064C063C062C061C0A1
:1000100060C05FC0C4C25DC05CC05BC05AC00902A2
:1000200022000101008019090400000103010200FF
:10003000092101010001221C000705810308000AB3
:100040001201100100000008091280F400010102F1
:100050000001180357006F0072006B00650072000A
:100060004D006F0075007300650012037A00620096
:10007000610075006D0061006E0033000403090427
:1000800005010902A1010901A10005010930093199
:100090001581257F750895028106C0C011241FBEF9
:1000A000CFE5D2E0DEBFCDBF10E0A0E6B0E0E6E1F4
:1000B000FAE002C005900D92AC36B107D9F720E006
:1000C000ACE6B0E001C01D92A93BB207E1F7ABD3AB
:1000D000A0C496CFCF93C62F20918A0024FF18C0CA
:1000E00020918B0038E8232720938B002C2FFC01D4
:1000F000ACE8B0E081918D9321501216DCF36C2FA7
:100100008CE890E027D1CC5FC0938A00CF9108950E
:100110002AE520938A00EACFCF93DF9380919B005A
:10012000835087FD27C0909197009D3209F5883054
:10013000F9F480919800CCE0D0E0C81BD109C156F9
:10014000DF4F83EC80937F008AE5809361001092FB
:100150006C008881807609F45AC0CE0145D29F8117
:10016000911104C09E81981708F4892F8093600034
:1001700010929B008091610084FF3CC080916000E0
:100180008F3FC1F1C82F893008F0C8E0982F9C1B21
:100190009093600090917F0028E8922790937F00D1
:1001A0008823E1F04091990050919A0080916C0071
:1001B00086FFA5C0A0E8B0E0FA019C2F84918D9342
:1001C00031969150D9F72FEF2C0F30E02F5F3F4F32
:1001D000240F351F30939A00209399006C2F80E8EC
:1001E00090E0B8D0CC5FCC3019F08FEF80936000F6
:1001F000C093610084E196B3957031F48150D9F7D2
:1002000010929C0010929600DF91CF9108952A8160
:1002100010928800998191110AC01092890028E8F3
:1002200030E082E030939A002093990098CF953087
:1002300029F420939C0028E830E0F4CF963009F0B0
:1002400047C09B81913041F480E490E090939A0004
:100250008093990082E109C0923059F48EE190E0D8
:1002600090939A008093990082E290E490936C00BE
:1002700076CF9330C9F4211108C08CE790E09093B9
:100280009A008093990084E0F0CF213019F48AE637
:1002900090E0DCCF223049F782E590E090939A001D
:1002A0008093990088E1E1CF913241F480E390E0BE
:1002B00090939A008093990089E0D7CF9232A9F663
:1002C00080E890E090939A00809399008CE1CDCFE4
:1002D000983071F0993019F420939E00ACCF9A3089
:1002E00059F09B3009F0A7CF9BE490938B00A3CFEC
:1002F0002EE930E081E096CF28E830E0FBCFDA014C
:10030000E0E8F0E09C2F8D9181939150E1F75BCF75
:1003100085B7836085BF8BB780648BBFEAE8F0E068
:100320008BE481838AE580830895A82FB92F80E02C
:1003300090E041E050EA609530E009C02D918227BD
:100340009795879510F084279527305EC8F36F5FE7
:10035000A8F30895EADF8D939D930895CF93CFB7C7
:10036000CF93DF93C395B09BE9F7B09B0BC0B09BD5
:1003700009C0B09B07C0B09B05C0B09B03C0B09B39
:1003800001C08BC06F93C0919800DD27C156DF4F2D
:100390002F9365E5B09B03C02F916F91E6CF0F932C
:1003A0001F934F9320E040E15F9306B3057000FB7D
:1003B00027F93F9350E03BE039C0157040642F7738
:1003C000012F5F5F1EC0406816B315702F77525023
:1003D0001FC0406406B32F770570D1F15F5F00C086
:1003E00023C0406216B32F77157091F15F5F00C094
:1003F00025C005701027515012F45D5F00001150A8
:1004000027952C3F16B3C8F6157001270150279584
:100410002C3FC8F64227499306B3057010274F7347
:10042000115027952C3FA8F64695469516B31570A2
:1004300079F00127015027952C3F98F66B5A60F30D
:10044000315006B3B0F600C010E41ABF002719C03F
:100450003B503195C31BD04010E41ABF0881033CC8
:1004600009F10B34F9F0209196001981110F121344
:10047000EDCF4A81441F093651F10D3211F0013E92
:1004800029F700939D003F915F914F911F910F912C
:100490002F916F91CAB7C6FD65CFDF91CF91CFBFC6
:1004A000CF91189520919D00222369F310919B0014
:1004B000112391F5343092F130939B0020939700F3
:1004C000109198003BE0311B3093980027C00091B9
:1004D0009B0001300CF50AE54F7049F43091610042
:1004E00034FD1DC000936100CFE7D0E01CC0309107
:1004F0008A0034FD14C000938A00CBE8D0E013C01A
:10050000052710E000C0000008BB1AC0052710E056
:10051000221F1DC010E021C04AE502C032ED432F6A
:10052000C4E1D0E032E017B31560C09A08B317BB3E
:1005300055E020E865E320FF052708BB27951795C0
:100540001C3FF0F66695B8F7B1F720FF052708BB0A
:10055000279517951C3FD0F62795179517FF052768
:1005600000001C3F08BBB0F629913A9519F70A7FA5
:1005700010919C00110FC651D04008BB11F0109390
:10058000960010E41ABF016017B31A7F402F4A7F0C
:1005900054E05A95F1F708BB17BB48BB74CF1F92C4
:1005A0000F920FB60F9211248F939F93AF93BF9327
:1005B00080916D0090916E00A0916F00B0917000DD
:1005C0000196A11DB11D80936D0090936E00A093C4
:1005D0006F00B0937000BF91AF919F918F910F907A
:1005E0000FBE0F901F90189580E00895F8946091C9
:1005F0006D0070916E0080916F0090917000789402
:100600000895CF93DF93D82FC62F9DD16C2FCC0F99
:10061000770B6F5F7F4F6D1B7109D7FD739522D1EB
:100620008D0FDF91CF9108950F931F93CF93DF9399
:100630002091730030917400809177009091780040
:100640002817390709F075C02091710030917200A8
:1006500080917500909176002817390709F069C0DC
:10066000C5DF0091790010917A0020917B003091D4
:100670007C000115110521053105E1F46093790035
:1006800070937A0080937B0090937C005CD165EF3F
:100690007AE1E8D08C599F4F092E000CAA0BBB0BB6
:1006A0008093640090936500A0936600B093670008
:1006B00080E040C0601B710B820B930B00916400C3
:1006C00010916500209166003091670060177107F6
:1006D0008207930768F31092790010927A001092C3
:1006E0007B0010927C002FD1CBEFD0E0BE01BAD0BE
:1006F0008D57082E000C990B90937800809377000B
:1007000022D1BE01AFD08D57082E000C990B9093CB
:1007100076008093750017D1CEE1D0E0BE01A2D063
:100720008F5F809363000FD1BE019CD08F5F809359
:10073000620081E0DF91CF911F910F910895242FE6
:10074000042E000C330B681779075CF4FC01E61BE0
:10075000F70B4195E217F30714F4462F481B842F3B
:100760000895FB01E81BF90BE217F307B4F3F7CF89
:10077000CF93DF9310927D0010927E00C0917300A2
:10078000D09174006091770070917800C617D707F8
:1007900071F040916300CE01D2DF80937D00C80FDD
:1007A000D11D87FDDA95D0937400C0937300C0917A
:1007B0007100D09172006091750070917600C6173B
:1007C000D70771F040916200CE01B9DF80937E00BF
:1007D000C80FD11D87FDDA95D0937200C0937100C8
:1007E000DF91CF91089580918A0084FF08C01CDFBB
:1007F000813029F4BDDF62E08DE790E06BCC089595
:10080000FC010FB6F8946091B5007091B60080912C
:10081000B7009091B8000FBE309721F060837183CC
:1008200082839383089590E080E0EADFCB018FD04C
:1008300089EF89BD82E08ABD83E083BF80E189BF03
:10084000B998C1982FEF82E597E021508040904001
:10085000E1F700C00000B99AC19A5ADD78945CDCD7
:10086000C2DFFDCF97FB072E16F4009406D077FD6C
:1008700008D00BD007FC05D03EF4909581959F4F92
:100880000895709561957F4F0895AA1BBB1B51E198
:1008900007C0AA1FBB1FA617B70710F0A61BB70BF0
:1008A000881F991F5A95A9F780959095BC01CD0195
:1008B00008958F929F92AF92BF92CF92DF92EF9264
:1008C000FF92CF93DF93EC01688179818A819B81CC
:1008D000611571058105910521F464E279ED8BE5DF
:1008E00097E02DE133EF41E050E055D049015A0146
:1008F00027EA31E440E050E035D06B017C012CEE7A
:1009000034EF4FEF5FEFC501B4012CD0DC01CB0118
:100910008C0D9D1DAE1DBF1DB7FF03C00197A10922
:10092000B04888839983AA83BB839F77DF91CF9157
:10093000FF90EF90DF90CF90BF90AF909F908F90FF
:100940000895B7DF089588E690E0B3DF0895B0E03A
:10095000A0E08093680090936900A0936A00B09330
:100960006B000895EE27FF27AA27BB2708C0A20F18
:10097000B31FE41FF51F220F331F441F551F969509
:1009800087957795679598F37040A9F7009799F741
:10099000BD01CF010895052E97FB16F400940FD0EA
:1009A00057FD05D014D007FC02D046F408C050957E
:1009B0004095309521953F4F4F4F5F4F089590954B
:1009C0008095709561957F4F8F4F9F4F0895A1E25D
:1009D0001A2EAA1BBB1BFD010DC0AA1FBB1FEE1FB9
:1009E000FF1FA217B307E407F50720F0A21BB30B04
:1009F000E40BF50B661F771F881F991F1A9469F780
:100A000060957095809590959B01AC01BD01CF01DB
:060A10000895F894FFCFE9
:0C0A1600FF5A0A0AE8030000010000007B
:00000001FF
